{
  "contractName": "Insurance",
  "abi": [
    {
      "inputs": [],
      "payable": false,
      "stateMutability": "nonpayable",
      "type": "constructor"
    },
    {
      "constant": false,
      "inputs": [
        {
          "name": "_person",
          "type": "address"
        }
      ],
      "name": "addPerson",
      "outputs": [],
      "payable": false,
      "stateMutability": "nonpayable",
      "type": "function"
    },
    {
      "constant": false,
      "inputs": [
        {
          "name": "a",
          "type": "address"
        }
      ],
      "name": "destroy",
      "outputs": [],
      "payable": false,
      "stateMutability": "nonpayable",
      "type": "function"
    }
  ],
  "bytecode": "0x608060405234801561001057600080fd5b50610176806100206000396000f30060806040526004361061004b576000357c0100000000000000000000000000000000000000000000000000000000900463ffffffff168062f55d9d14610050578063bc672a3814610093575b600080fd5b34801561005c57600080fd5b50610091600480360381019080803573ffffffffffffffffffffffffffffffffffffffff1690602001909291905050506100d6565b005b34801561009f57600080fd5b506100d4600480360381019080803573ffffffffffffffffffffffffffffffffffffffff1690602001909291905050506100ef565b005b8073ffffffffffffffffffffffffffffffffffffffff16ff5b60c86000808373ffffffffffffffffffffffffffffffffffffffff1673ffffffffffffffffffffffffffffffffffffffff16815260200190815260200160002060006101000a81548160ff021916908360ff160217905550505600a165627a7a7230582049751e252914f00baa7b1f35e4a3cc30bae30196011f657742716b0c06cfb55d0029",
  "source": "// solium-disable linebreak-style\r\npragma solidity ^0.4.24;\r\n\r\n\r\ncontract Insurance {\r\n    \r\n    // hashmap of person to claim\r\n    mapping (address => uint8) person;\r\n    \r\n    // Constructor\r\n    constructor () public {\r\n        \r\n    }\r\n\r\n    function addPerson(address _person) public {\r\n        // simple add to map\r\n        person[_person] = 200;\r\n    }\r\n\r\n    function getMap(address _person) internal view returns (uint8){\r\n        return person[_person];\r\n    }\r\n\r\n    function destroy(address a) public {\r\n        selfdestruct(a);\r\n    }\r\n\r\n}",
  "sourcePath": "C:\\Users\\Clemence Goh\\dapp\\contracts\\Insurance.sol",
  "compiler": {
    "name": "solc",
    "version": "0.4.24+commit.e67f0147.Emscripten.clang"
  },
  "schemaVersion": "2.0.1",
  "updatedAt": "2018-11-18T10:07:28.872Z"
}